:020000040800F2
:10000000A0070020451C0008AD020008AF02000850
:10001000B3020008B7020008BB020008000000009D
:10002000000000000000000000000000BF02000807
:10003000C102000800000000C3020008C502000859
:100040005F1C00085F1C00085F1C00085F1C0008A4
:100050005F1C00085F1C00085F1C00085F1C000894
:100060005F1C00085F1C00085F1C00085F1C000884
:100070005F1C00085F1C00085F1C00085F1C000874
:100080005F1C00085F1C00085F1C00085F1C000864
:100090005F1C00085F1C00085F1C0008C702000806
:1000A0005F1C00085F1C00085F1C00085F1C000844
:1000B0005F1C00085F1C00085F1C00085F1C000834
:1000C0005F1C00085F1C00085F1C00085F1C000824
:1000D0005F1C0008D90500085F1C00085F1C0008B1
:1000E0005F1C00085F1C00085F1C00085F1C000804
:1000F0005F1C00085F1C00085F1C00085F1C0008F4
:100100005F1C00085F1C00085F1C00085F1C0008E3
:100110005F1C00085F1C00085F1C00085F1C0008D3
:100120005F1C00085F1C00085F1C00085F1C0008C3
:1001300000F002F800F042F80AA090E8000C8244B7
:100140008344AAF10107DA4501D100F037F8AFF294
:10015000090EBAE80F0013F0010F18BFFB1A43F0A5
:1001600001031847581F0000781F0000103A24BFF1
:1001700078C878C1FAD8520724BF30C830C144BF0C
:1001800004680C607047000000230024002500264E
:10019000103A28BF78C1FBD8520728BF30C148BFEA
:1001A0000B607047642901F0A385782901F0DC8594
:1001B000002070471FB51FBD10B510BD01F028FF0E
:1001C0001146FFF7F7FF00F009F801F046FF03B40E
:1001D000FFF7F2FF03BC00F0A5F900000020294959
:1001E00008704FF40071284800F085FF00F0F2F825
:1001F0004FF48051244800F07EFF0A2000F004F9FB
:10020000102000F0B1FB0A2000F0FEF84FF48051FE
:100210001D4800F06EFF4FF400611B4800F069FFBD
:100220004FF48051184800F066FF4FF48071164873
:1002300000F061FF25E013480078012821D1134820
:10024000006880F40000124908601248006880F4D9
:100250000000114908601148016811480068401CFD
:10026000814208D20F480068012804D10A48016879
:100270000DA001F009FD01200A4908600020014994
:100280000870D8E708000020000C014000000020A2
:100290002000002004000020280000201000002082
:1002A0000C0000201400002025640A00704700BFE5
:1002B000FEE700BFFEE700BFFEE700BFFEE77047B6
:1002C0007047704770473EB52D480068012810D12F
:1002D0002C4801682C480068401C814209D24FF428
:1002E00000712A4800F005FF26480068401C254997
:1002F00008604FF4807001F022F8002406E0FF202F
:1003000000F032FB0DF80400601CC4B2092CF6DBCF
:1003100000201F4908601F4908609DF803001C4920
:10032000096841EA00401A4908609DF8040009681C
:1003300041EA0020164908609DF805000968084355
:10034000134908609DF806001249096841EA004017
:10035000104908609DF80700096841EA00200D492E
:1003600008609DF80800096808430A4908600120F0
:10037000094908704102054800F0BDFE3EBD00007D
:1003800014000020100000200C000020000C014090
:1003900000000020040000200800002008B5012112
:1003A000102000F035FD4FF40050ADF800000320A0
:1003B0008DF8020010208DF803006946044800F013
:1003C000EBFD4FF40051024800F093FE08BD000021
:1003D0000010014010B5C82000F073F8FFF7DEFFF1
:1003E0004FF4E13000F0ACF800F03CF900F02AFBEB
:1003F00000F084FA00F08BF910BD704700BF411E79
:10040000C9B2081EFBD17047002100BF082100BF00
:100410004A1ED2B2111EFBD1421ED2B2101EF5D11D
:100420007047002100BF0F2100BF4A1ED2B2111E2B
:10043000FBD1421E92B2101EF5D1704700BF0721BA
:1004400000BF0B2200BF531E9BB21A1EFBD14B1ED6
:100450009BB2191EF5D1431EDBB2181EEFD17047B7
:1004600000BF422100BF1E2200BF531EDBB21A1E76
:10047000FBD14B1EDBB2191EF5D1431EDBB2181E99
:10048000EFD17047652000BF582100BF4A1E92B2CD
:10049000111EFBD1421E92B2101EF5D1704700BF53
:1004A000772100BF432200BF531E9BB21A1EFBD10F
:1004B0004B1E9BB2191EF5D1431EDBB2181EEFD1A5
:1004C000704700BF40F2712100BF3F2200BF531EA2
:1004D0009BB21A1EFBD14B1E9BB2191EF5D1431EB7
:1004E000DBB2181EEED1704700BF4FF47A7100BF27
:1004F00040F2012200BF531E9BB21A1EFBD14B1EBD
:100500009BB2191EF4D1431EDBB2181EEDD1704709
:1005100001B502E00098401E009000980028F9D133
:1005200008BD000000BF704700BF4A4A128802F0B1
:100530004002002AF9D0C2B2464B1B1D1A807047F8
:1005400010B586B00446012144F2040000F060FCBE
:100550004FF40070ADF8140003208DF81600182039
:100560008DF8170005A93C4800F016FD4FF4806097
:10057000ADF8140004208DF8170005A9364800F0E6
:100580000BFD25208DF8000003208DF801008DF86B
:10059000020001208DF80300684600F062FA019421
:1005A0000020ADF80800ADF80A00ADF80C00ADF879
:1005B00010000C20ADF80E0001A9264801F091F8BA
:1005C000012240F22551234801F023F9012121485D
:1005D00001F013F906B010BD10B540F225511D48C9
:1005E00001F0FCF910B31B4801F078F9C4B21B48C4
:1005F000008800F40040C8B91848008800F4804022
:1006000060B10A2C03D000201449088020E0134870
:10061000008840F400401149088019E00D2C06D1F3
:100620000E48008840F480400C49088010E00B48D8
:100630000088C0F30D000A490C5408480088401C8B
:100640000649088008460088C72801DD0020088088
:1006500010BD0000003801400008014034000020B7
:100660006000002008B50121082000F0D1FB4FF404
:10067000F850ADF8000003208DF8020010208DF82E
:1006800003006946964800F087FC08BD70B5054632
:100690000C464FF48051924800F02DFD284600F0A2
:1006A00063F90A20FFF7B0FE002000F05DF90A2090
:1006B000FFF7AAFE204600F057F90A20FFF7A4FE34
:1006C0004FF48051864800F014FD70BD70B50446AB
:1006D0004FF48051824800F00EFD204600F044F9AE
:1006E0000A20FFF791FE002000F03EF90A20FFF7F4
:1006F0008BFEFF2000F038F905460A20FFF784FE44
:100700004FF48051764800F0F4FC284670BD10B5D7
:100710004FF40061724800F0ECFC4FF480517048D7
:1007200000F0E7FC4FF480616D4800F0E4FC142019
:10073000FFF7DAFE4FF48061694800F0DAFC14201C
:10074000FFF7D2FE4FF48061654800F0D4FC0A2028
:10075000FFF75AFE4FF48061614800F0CAFC142094
:10076000FFF7C2FE4FF400615D4800F0C4FC4FF497
:1007700080515B4800F0BFFC0A20FFF745FE1120C6
:1007800000F0F2F80A20FFF73FFE4FF48051544882
:1007900000F0AFFC2020FFF799FF0446214651A04E
:1007A00001F072FA2020FFF791FF04461420FFF7B2
:1007B0009BFE0A20FFF728FEE0214220FFF766FF9C
:1007C0000A20FFF76CFE03214120FFF75FFF0A209C
:1007D000FFF71AFEF0214320FFF758FF0A20FFF72A
:1007E00013FE60214420FFF751FF0A20FFF70CFEA3
:1007F00000214520FFF74AFF0A20FFF705FEEF2101
:100800004620FFF743FF0A20FFF7FEFD0F21472098
:10081000FFF73CFF0A20FFF7F7FD00214820FFF714
:1008200035FF0A20FFF7F0FDEA214920FFF72EFFF0
:100830000A20FFF7E9FD03214A20FFF727FF0A20DE
:10084000FFF7E2FD0C214B20FFF720FF0A20FFF706
:10085000DBFD10BD70B505464FF48051204800F017
:100860004AFC0A20FFF7D0FD102000F07DF80A2096
:10087000FFF7CAFD4FF48051194800F03AFC4FF4DD
:100880000061174800F035FC00BF08211A4800F04D
:1008900016FC0128F9D04FF48051114800F02BFCD0
:1008A0000A20FFF7B1FD002406E0FF2000F05CF80D
:1008B00028706D1C601CC4B2092CF6DB4FF400617B
:1008C000074800F018FC112000F04EF80A20FFF74E
:1008D0009BFD4FF48051024800F00BFC70BD0000FE
:1008E000000C0140414453313239322049443A2509
:1008F0003032780D0A0000000008014008B50121DF
:10090000082000F085FA0121880300F08EFA4FF4E8
:100910006040ADF8000018208DF8030003208DF82A
:1009200002006946264800F037FB4FF46041244836
:1009300000F0DFFB0020234908804FF482704880DC
:1009400000208880C8800120088140024881202042
:1009500088810020C88108821B4800F01FFD01210A
:10096000194800F0C0FD08BD70B50546002407E039
:10097000601C84B244F62060844201DD002070BD1A
:100980000221114800F033FE0028F1D029460E481C
:1009900000F0DAFD002407E0601C84B244F6206019
:1009A000844201DD0020EAE70121074800F01FFE34
:1009B0000028F1D0044800F0C9FDC0B2DFE7000014
:1009C000000C0140280100200038004008B501213A
:1009D000052000F01DFA4FF48070ADF800000320F0
:1009E0008DF8020048208DF803006946194800F090
:1009F000D3FA08BD1CB50821002000F0E3FB4FF43A
:100A00008070009000208DF804000C208DF8050007
:100A100001208DF80600684600F01AFC1CBD08B5E0
:100A20004FF4A06000F018F817208DF800000120A6
:100A30008DF801008DF802008DF80300684600F083
:100A400010F808BD10B5FFF7C1FFFFF7E8FFFFF78B
:100A5000D1FF10BD0008014031490143314A116006
:100A6000704770B5002100230F22C47804B32D4CC9
:100A7000246804F4E064C4F5E064210AC1F10403CD
:100A8000CA40447804FA03F18478144021430901F0
:100A9000254C0678A155047804F01F050124AC40CC
:100AA00005786D11AD0005F1E025C5F8004109E0BC
:100AB000047804F01F050124AC401C4D0678761123
:100AC00045F8264070BD1A4A0A400243154B1B1FC9
:100AD0001A60704739B1134A121D12680243114B54
:100AE0001B1D1A6006E00F4A121D126882430D4B4F
:100AF0001B1D1A607047042808D14FF0E0210969D6
:100B000041F004014FF0E022116107E04FF0E021D5
:100B1000096921F004014FF0E022116170470000E3
:100B20000000FA050CED00E000E400E080E100E0E8
:100B300080FFFF1FDF48006840F00100DD490860CA
:100B400008464068DC490840DA49486008460068C1
:100B5000DA490840D74908600846006820F4802038
:100B600008600846406820F4FE0048604FF41F000B
:100B700088607047CF49096821F48031CD4A1160FF
:100B80001146096821F480211160B0F5803F03D03F
:100B9000B0F5802F0ED106E0C649096841F48031D6
:100BA000C44A116007E0C349096841F4A021C14A61
:100BB000116000E000BF00BF704710B50146002281
:100BC000002300204A11012A02D1BA4C236806E012
:100BD000022A02D1B74C236A01E0B64C636A01F0E5
:100BE0001F02012494401C400CB1012000E00020B1
:100BF00010BD38B5002000900024002500BF312032
:100C0000FFF7DBFF05460098401C00900098B0F508
:100C1000A06F01D0002DF2D03120FFF7CEFF08B138
:100C2000012400E00024204638BD01460020A14AEE
:100C3000106820F0F80040EAC10010607047A04939
:100C400008607047024600209A4B586820F47C10D8
:100C500042EA01031843974B586070479849086669
:100C6000704701460020934A506820F00300084373
:100C7000506070478F48406800F00C007047014694
:100C800000208C4A506820F0F00008435060704704
:100C900001460020874A506820F4E0600843506015
:100CA000704701460020834A506820F4605040EAB3
:100CB000C1005060704729B17E4A527A02437D4B91
:100CC0005A7204E07B4A527A82437A4B5A727047D6
:100CD0007B49D8310860704701460020754A50684A
:100CE00020F440400843506070470021714A203290
:100CF0001170704A82F82010012802D004280AD10D
:100D000004E001216B4A2032117005E00521694A97
:100D10002032117000E000BF00BF704769490860D1
:100D200070476449096A0143624A11627047654924
:100D300044390860704730B50021002200240023A8
:100D40005C4D6D6805F00C0121B1042905D008291E
:100D500023D105E05C4D056022E05B4D05601FE09E
:100D6000544D6D6805F47012524D6D6805F4803471
:100D7000022505EB92421CB9544D554305600BE02A
:100D80004C4D6D6805F400351DB1504D554305605F
:100D900002E04D4D5543056002E04B4D056000BF3C
:100DA00000BF444D6D6805F0F0010909484D6B5CCA
:100DB0000568DD4045603F4D6D6805F4E061090A56
:100DC000434D6B5C4568DD4085603A4D6D6805F4C8
:100DD0006051C90A3E4D6B5C4568DD40C560354DCC
:100DE0006D6805F44041890B3A4D6B5CC568B5FBF5
:100DF000F3F5056130BD29B12E4A526902432D4BEE
:100E00005A6104E02B4A526982432A4B5A61704767
:100E100029B1284A92690243264B9A6104E0254A87
:100E200092698243234B9A61704729B1214AD26962
:100E30000243204BDA6104E01E4AD26982431D4B13
:100E4000DA61704729B11B4AD2680243194BDA6054
:100E500004E0184AD2688243164BDA60704729B121
:100E6000144A12690243134B1A6104E0114A1269D1
:100E70008243104B1A61704712494039086070472D
:100E80000F49C86470470B49C87170470948406AE8
:100E900040F0807007494862704701460020054ACB
:100EA00092680A400AB1012000E000207047014921
:100EB00088727047001002400000FFF8FFFFF6FE46
:100EC000000042428004424200127A0000093D00C4
:100ED000360000204600002010B50446CC4884426D
:100EE00008D101210420FFF7ADFF00210420FFF706
:100EF000A9FF46E0C748844208D101210820FFF736
:100F0000A1FF00210820FFF79DFF3AE0C24884427C
:100F100008D101211020FFF795FF00211020FFF7D5
:100F200091FF2EE0BD48844208D101212020FFF727
:100F300089FF00212020FFF785FF22E0B848844286
:100F400008D101214020FFF77DFF00214020FFF75D
:100F500079FF16E0B348844208D101218020FFF7D1
:100F600071FF00218020FFF76DFF0AE0AE48844248
:100F700007D101218015FFF765FF0021A015FFF7BC
:100F800061FF10BD10B501210846FFF75BFF00218E
:100F90000120FFF757FF10BD2DE9F0410246002563
:100FA0000026002000230024002791F803C00CF045
:100FB0000F0591F803C00CF0100CBCF1000F03D02A
:100FC00091F802C04CEA050591F800C0BCF1000F91
:100FD00031D0146800202BE04FF0010C0CFA00F324
:100FE000B1F800C00CEA03069E4220D183004FF006
:100FF0000F0C0CFA03F7BC4305FA03FC4CEA04049B
:1010000091F803C0BCF1280F06D14FF0010C0CFA87
:1010100000FCC2F814C00AE091F803C0BCF1480F0C
:1010200005D14FF0010C0CFA00FCC2F810C0401CB6
:101030000828D1D31460B1F800C0BCF1FF0F34DD33
:10104000546800202EE000F1080C4FF0010808FA67
:101050000CF3B1F800C00CEA03069E4221D18300D4
:101060004FF00F0C0CFA03F7BC4305FA03FC4CEAF3
:10107000040491F803C0BCF1280F05D100F1080C5D
:1010800008FA0CF8C2F8148091F803C0BCF1480FBC
:1010900007D100F1080C4FF0010808FA0CF8C2F86B
:1010A0001080401C0828CED35460BDE8F0814FF674
:1010B000FF710180022181700421C17070470246D6
:1010C000002093680B400BB1012000E00020704726
:1010D0000146886880B2704702460020D3680B4002
:1010E0000BB1012000E0002070470146C86880B2C3
:1010F000704701617047416170470AB1016100E0CA
:1011000041617047C16070474FF480320A43826189
:101110008161826182698269704702460020434B87
:1011200018684FF68073184040EA021008433F4B9E
:10113000186070473E49C8617047F0B50A46002301
:1011400000240021002500F00046B6F1004F02D136
:10115000364EF16901E0354E7168C0F3034583B244
:1011600000F44016B6F5401F08D121F070612F4EF3
:10117000766826F070662D4F7E6012E000F48016CF
:10118000B6F5801F06D1032606FA05F4A14341F007
:10119000706106E0460D360103FA06F6B14341F0F0
:1011A000706122B1460D360103FA06F6314300F0B4
:1011B0000046B6F1004F02D11C4EF16101E01B4E1A
:1011C0007160F0BD30B500228B071C0F0F2303FAAE
:1011D00004F2164B08338C1053F824309343134C0D
:1011E00008348D1044F8253023468C1053F82430F1
:1011F0008C07240F00FA04F423430C4C08348D10A0
:1012000044F8253030BD0A49DC31086070470000E1
:1012100000080140000C0140001001400014014092
:1012200000180140001C0140002001400000014066
:1012300000002042002044490860091D0860091D83
:101240000860091D086041483F4914310860704733
:1012500000213D498279002A3AD00A461268036883
:101260009A430B461A600A1D126803689A430B1DC5
:101270001A60027911440A6803681A430A60324A04
:101280000832126803689A432F4B08331A601A1DFC
:10129000126803689A432C4B0C331A604279102A67
:1012A0000ED11A1F126803681A43274B08331A60BD
:1012B0001A1D126803681A43234B0C331A600DE0A1
:1012C0002149427911440A6803681A430A6005E01B
:1012D000027911440A6803689A430A607047002142
:1012E000016001710C214171002181717047164923
:1012F000103109680143144A1032116070470146E9
:101300000020114A143212680A400AB1012000E09C
:10131000002070470C4914310860704701460020D6
:101320000022094B1B6803EA0102074B14331B68B8
:101330000B4013B10AB1012000E0002070470249C0
:10134000143108607047000000040140FFFF0F00E7
:1013500010B50446BE48844208D101218014FFF72D
:1013600071FD0021A014FFF76DFD16E0B94884421D
:1013700008D101210014FFF772FD00212014FFF7AE
:101380006EFD0AE0B448844207D10121C013FFF783
:1013900066FD0021E013FFF762FD10BD10B50022CD
:1013A000028802F441520B884C8823438C882343E3
:1013B000CC8823430C8923434C8923438C892343C2
:1013C000CC8923431A430280838B4FF2FF7423405E
:1013D00083830B8A038210BD2DE9F04F85B005464B
:1013E0000C464FF0000902274FF000084FF0010BA8
:1013F0000026B246A88B4FF240010840A883022085
:101400002884B5F81C90A068022801D100BF38E0FC
:10141000A08810B94FF0010B01E04FF0020B8D488E
:10142000854200D100E000BF6846FFF784FCDDF88C
:1014300000A0E088B0F5007F0AD14FEA1A2000EB47
:1014400080004000A168B0FBF1F0401D86B20BE0C7
:101450004FEA4B10BAFBF0F000EB80004000A168AF
:10146000B0FBF1F0401D86B20A20B6FBF0F606F0A4
:101470000108A6EB0800C0F34F074FF6FF7000EA23
:101480000828022F01DBFF2F02DD02274FF00008A2
:10149000E08840EA080038432884A088A1890843EE
:1014A000618808432188084340F4006040EA090944
:1014B000A5F81C9005B0BDE8F08F002101804180A7
:1014C0008180C180018141818181C18107210182A7
:1014D00070470021018041808180C18002218160AC
:1014E00000218181704721B1028842F040020280D0
:1014F00004E002884FF6BF731A400280704721B1A2
:10150000828B42F48062828304E0828B4FF6FF3349
:101510001A408283704730B5002400230C11012546
:10152000A540ABB21AB185881D43858002E085884D
:101530009D43858030BD1AB183880B43838002E0D0
:1015400083888B43838070478181704701468889F7
:1015500070474FF6FF62914204D0028842F48072D5
:10156000028004E002884FF6FF631A400280704751
:1015700021B1828842F00402828004E082884FF622
:10158000FB731A408280704702884FF2FF731A4043
:10159000028002880A4302807047018841F480512A
:1015A0000180704721B1028842F40052028004E0B9
:1015B00002884DF6FF731A400280704702460020F1
:1015C000012901D0108B00E0908A70470146088AFB
:1015D0007047B1F5804F04D1028842F48042028006
:1015E00004E002884BF6FF731A40028070470246FF
:1015F000002013890B400BB1012000E00020704750
:10160000CA4302817047F0B502460020002400233F
:10161000002501F00F070126BE40B4B20B110126D0
:101620009E40B3B2968806EA03051689264016B195
:101630000DB1012000E00020F0BD10B5002201F046
:101640000F040123A3409AB2D343038110BD0000CD
:101650000030014000380040003C004010B5044616
:10166000FB48844209D101218803FFF7EBFB0021ED
:101670004FF48040FFF7E6FB32E0F648844209D1A0
:1016800001214804FFF7EBFB00214FF40030FFF786
:10169000E6FB25E0F048844209D101218804FFF7E8
:1016A000DEFB00214FF48020FFF7D9FB18E0EB4868
:1016B000844209D10121C804FFF7D1FB00214FF476
:1016C0000020FFF7CCFB0BE0E548844208D1012164
:1016D0000805FFF7C4FB00214FF48010FFF7BFFBA4
:1016E00010BD2DE9F04786B005460E460024A246FF
:1016F00000BFA1460027B08900B100BF2F462C8A49
:101700004CF6FF700440F08804432C82AC894EF6FE
:10171000F3100440B08831890843718908430443B9
:10172000AC81AC8A4FF6FF400440B0890443AC82E0
:1017300001A8FFF700FBC648874202D1DDF810A0E0
:1017400001E0DDF80CA0A88900F4004040B10AEBEC
:10175000CA0000EB0A1031684900B0FBF1F807E05D
:101760000AEBCA0000EB0A1031688900B0FBF1F8FF
:101770006420B8FBF0F004012009642101FB10890A
:10178000A88900F4004040B1322000EBC900B0FB52
:10179000F1F000F00700044308E0322000EB0910EC
:1017A0006421B0FBF1F000F00F0004432C8106B07F
:1017B000BDE8F0874FF41651016000218180C1809F
:1017C00001810C21418100218181704710B50246C1
:1017D0000020108A4FF2FF0318400B884C882343E7
:1017E0008C882343CC8823431843108210BD0021EA
:1017F000018041808180C180704721B1828942F49B
:101800000052828104E082894DF6FF731A40828182
:101810007047F0B50346002400260025002040F65E
:101820006A17B94200D100BF1846C1F3421401F053
:101830001F06012707FA06F5012C01D10C3004E040
:10184000022C01D1103000E014301AB107682F4388
:10185000076002E00768AF430760F0BD1AB1838AF2
:101860000B43838202E0838A8B4383827047028A20
:101870004FF6F0731A400282028A0A4302827047CE
:1018800082894FF2FF731A40828182890A438281E2
:10189000704721B1828942F00202828104E082898C
:1018A0004FF6FD731A4082817047028A4FF6DF734C
:1018B0001A400282028A0A430282704721B1028AD8
:1018C00042F48042028204E0028A4BF6FF731A401F
:1018D00002827047C1F308028280704701468888FF
:1018E000C0F308007047818941F001018181704790
:1018F000028BD2B20283028B42EA0122028370473A
:10190000028B02F47F420283028B0A4302837047F8
:1019100021B1828A42F02002828204E0828A4FF65C
:10192000DF731A408282704721B1828A42F010022E
:10193000828204E0828A4FF6EF731A4082827047F7
:1019400021B1828A42F00802828204E0828A4FF644
:10195000F7731A408282704721B1828942F40042B3
:10196000828103E08289C2F30E028281704721B135
:10197000828A42F40062828204E0828A4FF2FF731C
:101980001A4082827047828A4FF6FB731A40828225
:10199000828A0A438282704721B1828A42F002021F
:1019A000828204E0828A4FF6FD731A408282704779
:1019B00002460020B1F5007F00D100BF13880B4024
:1019C0000BB1012000E00020704701F40072B2F575
:1019D000007F00D100BFCA430280704770B5024645
:1019E000002400230025002040F66A16B14200D1F1
:1019F00000BFC1F3421501F01F03012606FA03F3ED
:101A0000012D02D19689334006E0022D02D1168ABB
:101A1000334001E0968A33400C12012606FA04F4A2
:101A20001688344013B10CB1012000E0002070BDD5
:101A300010B50022002340F66A14A14200D100BF75
:101A40000A1201249440A3B2DC43048010BD0000BC
:101A5000003801400044004000480040004C004075
:101A6000005000400CB50020019000906C480068C8
:101A700040F480306A49086000BF6948006800F49B
:101A8000003000900198401C0190009818B901980E
:101A9000B0F5A06FF1D16248006800F4003010B1D9
:101AA0000120009001E0002000900098012843D11F
:101AB0005C48006840F010005A4908600846006819
:101AC00020F0030008600846006840F0020008604B
:101AD0005348406852494860084640684860084694
:101AE000406840F4806048600846406820F47C10FC
:101AF00048600846406840F4E810486008460068BE
:101B000040F08070086000BF4548006800F0007039
:101B10000028F9D04248406820F00300404948605E
:101B20000846406840F00200486000BF3C484068FA
:101B300000F00C000828F9D10CBD10B5FFF792FF9A
:101B400010BD10B53648006840F001003449086007
:101B500008464068344908403149486008460068F2
:101B6000324908402E4908600846006820F4802069
:101B700008600846406820F4FE0048604FF41F00EB
:101B80008860FFF7DAFF4FF000602949086010BD58
:101B900010B5002100200022214B5B6803F00C01EE
:101BA00021B1042906D0082928D107E0214B224C75
:101BB000236027E01F4B204C236023E0184B5B6819
:101BC00003F47010164B5B6803F48032022303EBBE
:101BD000904022B9194B4343174C23600DE0104B42
:101BE0005B6803F4003323B1144B4343124C23606E
:101BF00003E0104B4343104C236003E00D4B0E4CAD
:101C0000236000BF00BF064B5B68C3F303130C4C9B
:101C1000E15C094B1B68CB40074C236010BD000002
:101C200000100240002002400000FFF8FFFFF6FE17
:101C300008ED00E000127A004C00002000093D0091
:101C4000500000200948804709480047FEE7FEE7AA
:101C5000FEE7FEE7FEE7FEE7FEE7FEE7FEE7FEE75C
:101C600004480549054A064B70470000431B00081D
:101C700031010008A0010020A0070020A0030020DF
:101C8000A0030020704700000FB4044910B503AA58
:101C9000029800F08FF910BC5DF814FB30000020B2
:101CA00070B5044685690068C10601D5302600E09C
:101CB0002026C00707D070BDD4E9012130469047E7
:101CC000206A401C20626D1EF6D570BD70B50446BA
:101CD00085690078C00707D170BDD4E901212020B3
:101CE0009047206A401C20626D1EF6D570BD000032
:101CF0002DE9F0410646002410687529314616A5E5
:101D000010D0AFF30080002802DA404213A507E0AC
:101D100031688A0701D512A502E0490704D511A54B
:101D2000012401E0AFF3008000210A2206F124071C
:101D300009E0B0FBF2FCB0FBF2F302FB1C00303018
:101D400078541846491C0028F3D123462A463046C9
:101D5000BDE8F04100F0D4B8000000002D00000004
:101D60002B0000002000000070B504460D462146FF
:101D70001068AFF300802188090502D50F4A7A4424
:101D800002E00E4A7A440E32002104F1240305E0F9
:101D900000F00F060009965D5E54491C0028F7D13B
:101DA00020780023000704D5702D02D009B102234A
:101DB00011322046BDE8704000F0A2B800030000D8
:101DC0002DE9F05F894604464FF0000ADFF824B1A0
:101DD000FB44C0F820A02046E168884700287DD059
:101DE000252806D0D4E901219047206A401C2062B2
:101DF000F1E700255F462046E1688847202806462F
:101E000007DB312E05D2B81910F8200C08B10543B4
:101E1000F1E7A80701D525F00405C4F81CA00027A8
:101E2000C4F818A02A2E09D0304600F023F938B3A0
:101E300004EB8708303EC8F8186019E059F8041B15
:101E4000204604EB87029161E1688847012F06462E
:101E500018D1E069002820DA25F020051DE0D8F827
:101E6000180000EB800006EB40003038C8F818007E
:101E70002046E1688847064600F0FCF80028EED1CD
:101E8000012F0AD02E2E08D12046E16888477F1CFA
:101E90000646022F45F02005C4DBA069002803DABE
:101EA000404245F00105A061E80701D025F010058A
:101EB000A6B1A6F14100192802D8203645F40065E4
:101EC0004A463146204625604D46FEF76BF960B123
:101ED000012807D0ED1D25F0070000E007E000F124
:101EE000080978E705F1040975E730467AE7206AC2
:101EF000BDE8F09FD60200007047704770477047FA
:101F00002DE9F0470D4699469246044600F1240813
:101F10000168880604D5E06921F01001216000E025
:101F20000120A84201DD471B00E00027A1697A19C2
:101F300002EB0900081AA0612078C00602D42046EE
:101F4000FFF7AEFE002608E0D4E901211AF80600EA
:101F50009047206A401C761C20624E45F4DB2078B6
:101F6000C0060AD52046FFF79BFE06E0D4E9012112
:101F700030209047206A401C2062381EA7F10107DC
:101F8000F4DC07E0D4E9012118F805009047206A45
:101F9000401C2062281EA5F10105F3DC2046FFF756
:101FA00095FE2078000602D50220BDE8F0870120CA
:101FB000FBE70000074B70B50D467B4400F011F8BD
:101FC0000446284600F020F810B14FF0FF3070BDF5
:101FD000204670BD6BE5FFFF01694A1C026108786D
:101FE000704700B58FB0CDE9013100210591054959
:101FF0007944CDE9031011466846FFF7E1FE0FB0C2
:1020000000BD0000E5FFFFFF007B00F0800070478F
:10201000754600F02BF8AE4605006946534620F0A1
:102020000700854618B020B5FFF71AFEBDE820402E
:102030004FF000064FF000074FF000084FF0000B84
:1020400021F00701AC46ACE8C009ACE8C009ACE837
:10205000C009ACE8C0098D46704710B50446AFF31F
:1020600000802046BDE81040FEF7B1B80048704738
:102070003C01002030380A2801D20120704700209E
:102080007047303132333435363738394142434482
:1020900045464030580030313233343536373839E0
:1020A00061626364656640307800040000080000E7
:1020B000000000000002000100001000DC20000809
:1020C00000000020600000006C0100083C210008B6
:1020D00060000020400700008801000800000000A8
:1020E00000000000000000001027000000000000B9
:1020F00000000000010000000100000000000000DE
:1021000000000000000000000000000000000000CF
:10211000000000000000010203040102030406079E
:10212000080902040608000000A24A04000000009A
:0C2130000000000001020304060708097B
:0400000508000131BD
:00000001FF
