:020000040800F2
:10000000A80B0020C91D00082504000827040008CB
:100010002B0400082F04000833040008000000002F
:10002000000000000000000000000000370400088D
:1000300039040008000000003B0400083D040008EB
:10004000E31D0008E31D0008E31D0008E31D000890
:10005000E31D0008E31D0008E31D0008E31D000880
:10006000E31D0008E31D0008E31D0008E31D000870
:10007000E31D0008E31D0008E31D0008E31D000860
:10008000E31D0008E31D0008E31D0008E31D000850
:10009000E31D0008E31D0008E31D00083F040008FD
:1000A000E31D0008E31D0008E31D0008E31D000830
:1000B000E31D0008E31D0008E31D0008E31D000820
:1000C000E31D0008E31D0008E31D0008E31D000810
:1000D000E31D00085D070008E31D0008E31D00089C
:1000E000E31D0008E31D0008E31D0008E31D0008F0
:1000F000E31D0008E31D0008E31D0008E31D0008E0
:10010000E31D0008E31D0008E31D0008E31D0008CF
:10011000E31D0008E31D0008E31D0008E31D0008BF
:10012000E31D0008E31D0008E31D0008E31D0008AF
:1001300000F002F800F04DF80AA090E8000C8244AC
:100140008344AAF10107DA4501D100F042F8AFF289
:10015000090EBAE80F0013F0010F18BFFB1A43F0A5
:1001600001031847D0430000F0430000103A24BFB9
:1001700078C878C1FAD8520724BF30C830C144BF0C
:1001800004680C607047000000230024002500264E
:10019000103A28BF78C1FBD8520728BF30C148BFEA
:1001A0000B607047662903F05287642902F0E082F1
:1001B000782902F01983002070471FB502F080FEF5
:1001C00004000020002103F0D7FBE0601FBD10B544
:1001D00010BD02F08DFF1146FFF7EFFF00F008F8A9
:1001E00002F0ABFF03B4FFF7F2FF03BC00F05CFAD0
:1001F00090B00024744903C9CDE90801002006909D
:100200000790724908704FF40071714801F035F899
:1002100000F0A2F96F4800686F4B704A812100908E
:100220000DA802F062FA6B4800686D4B6D4A81219F
:1002300000900AA802F059FA4FF48051644801F086
:100240001CF80A2000F0A2F9102000F04FFC0A2050
:1002500000F09CF94FF480515D4801F00CF84FF428
:1002600000615B4801F007F84FF48051584801F0F5
:1002700004F8A8E0554800780128FAD15A490968DD
:1002800081F4000003F028FD584908605148584A9D
:1002900003680DA801F0B8FD5649096881F4000013
:1002A00003F01AFD544908604A48544A03680AA8F2
:1002B00001F0AAFD099803F00FFD07464F480168B9
:1002C000384603F01DFE04D24C48006803F0CCFC15
:1002D0000990079803F000FD074648480168384632
:1002E00003F00EFD04D24548006803F0BDFC079002
:1002F00004980390059804904048006803F0B4FC0B
:1003000005900320B5FBF0F00699081A049988427D
:1003100001D2012000E00020DDE90312914201D268
:10032000012100E000210840DDE90421914201D2D1
:10033000012100E00021084068B1314909888800A6
:1003400003F0B2FC074639462E4803F0CBFB0646C5
:1003500000202B490880641CB4F5FA6F0CD9099869
:100360000890079806904FF0FF3009900020079002
:1003700008990698451A0024234801682348006814
:10038000401C814219D222480068012815D130460C
:1003900003F00EFB074688461548006803F064FC2E
:1003A00081461648006803F05FFC82464A46514683
:1003B00018A0CDE9007802F0A7F9012014490860DF
:1003C00000200249087055E75C440008080000203E
:1003D000000C014018000020600000205842000876
:1003E000640200205440000800000020200000208B
:1003F0002400002004000020280000202C00002001
:100400000A00002000606A47100000200C00002055
:10041000140000202538642C2538642C2536660A03
:1004200000000000704700BFFEE700BFFEE700BF0E
:10043000FEE700BFFEE770477047704770473EB564
:100440002F480068012810D12E4801682E48006806
:10045000401C814209D24FF400712C4800F00BFF80
:1004600028480068401C274908604FF4807001F05C
:1004700028F8002406E0FF2000F038FB0DF8040007
:10048000601CC4B2092CF6DB002021490860214918
:1004900008609DF803001E49096841EA00401C49B4
:1004A00008609DF80400096841EA002018490860C6
:1004B0009DF8050009680843154908609DF8060085
:1004C0001449096841EA0040124908609DF8070094
:1004D000096841EA00200F4908609DF80800096892
:1004E00008430C4908600C480088401C0A490880F1
:1004F00001200A4908704102044800F0BEFE3EBDDA
:1005000014000020100000200C000020000C01400E
:1005100000000020040000200A0000200800002045
:1005200008B50121102000F035FD4FF40050ADF862
:10053000000003208DF8020010208DF803006946AA
:10054000044800F0EBFD4FF40051024800F093FE28
:1005500008BD00000010014010B5C82000F073F87D
:10056000FFF7DEFF4FF4E13000F0ACF800F03CF9AB
:1005700000F02AFB00F084FA00F08BF910BD704700
:1005800000BF411EC9B2081EFBD17047002100BF49
:10059000082100BF4A1ED2B2111EFBD1421ED2B2A8
:1005A000101EF5D17047002100BF0F2100BF4A1E69
:1005B000D2B2111EFBD1421E92B2101EF5D170476D
:1005C00000BF072100BF0B2200BF531E9BB21A1EA3
:1005D000FBD14B1E9BB2191EF5D1431EDBB2181E78
:1005E000EFD1704700BF422100BF1E2200BF531E43
:1005F000DBB21A1EFBD14B1EDBB2191EF5D1431E16
:10060000DBB2181EEFD17047652000BF582100BF34
:100610004A1E92B2111EFBD1421E92B2101EF5D19B
:10062000704700BF772100BF432200BF531E9BB21B
:100630001A1EFBD14B1E9BB2191EF5D1431EDBB215
:10064000181EEFD1704700BF40F2712100BF3F225A
:1006500000BF531E9BB21A1EFBD14B1E9BB2191E2C
:10066000F5D1431EDBB2181EEED1704700BF4FF428
:100670007A7100BF40F2012200BF531E9BB21A1EC6
:10068000FBD14B1E9BB2191EF4D1431EDBB2181EC8
:10069000EDD1704701B502E00098401E009000982F
:1006A0000028F9D108BD000000BF704700BF4A4ACA
:1006B000128802F04002002AF9D0C2B2464B1B1D3C
:1006C0001A80704710B586B00446012144F2040038
:1006D00000F060FC4FF40070ADF8140003208DF8BA
:1006E000160018208DF8170005A93C4800F016FDEB
:1006F0004FF48060ADF8140004208DF8170005A9B0
:10070000364800F00BFD25208DF8000003208DF801
:1007100001008DF8020001208DF80300684600F00A
:1007200062FA01940020ADF80800ADF80A00ADF8B7
:100730000C00ADF810000C20ADF80E0001A9264801
:1007400001F091F8012240F22551234801F023F9EC
:100750000121214801F013F906B010BD10B540F297
:1007600025511D4801F0FCF910B31B4801F078F940
:10077000C4B21B48008800F40040C8B9184800887B
:1007800000F4804060B10A2C03D000201449088096
:1007900020E01348008840F400401149088019E027
:1007A0000D2C06D10E48008840F480400C4908808A
:1007B00010E00B480088C0F30D000A490C540848AB
:1007C0000088401C0649088008460088C72801DDCB
:1007D0000020088010BD00000038014000080140E2
:1007E000340000206804002008B50121082000F032
:1007F000D1FB4FF4F050ADF8000003208DF802005B
:1008000010208DF803006946964800F087FC08BD6B
:1008100070B505460C464FF48051924800F02DFD0E
:10082000284600F063F90A20FFF7B0FE002000F030
:100830005DF90A20FFF7AAFE204600F057F90A20CA
:10084000FFF7A4FE4FF48051864800F014FD70BD00
:1008500070B504464FF48051824800F00EFD2046EA
:1008600000F044F90A20FFF791FE002000F03EF965
:100870000A20FFF78BFEFF2000F038F905460A201A
:10088000FFF784FE4FF48051764800F0F4FC2846D0
:1008900070BD10B54FF40061724800F0ECFC4FF4ED
:1008A0008051704800F0E7FC4FF480616D4800F023
:1008B000E4FC1420FFF7DAFE4FF48061694800F091
:1008C000DAFC1420FFF7D2FE4FF48061654800F097
:1008D000D4FC0A20FFF75AFE4FF48061614800F013
:1008E000CAFC1420FFF7C2FE4FF400615D4800F01F
:1008F000C4FC4FF480515B4800F0BFFC0A20FFF7B6
:1009000045FE112000F0F2F80A20FFF73FFE4FF4F9
:100910008051544800F0AFFC2020FFF799FF0446B7
:10092000214651A001F0F0FE2020FFF791FF044680
:100930001420FFF79BFE0A20FFF728FEE02142204B
:10094000FFF766FF0A20FFF76CFE00214120FFF74A
:100950005FFF0A20FFF71AFEF0214320FFF758FF40
:100960000A20FFF713FE60214420FFF751FF0A2001
:10097000FFF70CFE00214520FFF74AFF0A20FFF792
:1009800005FEEF214620FFF743FF0A20FFF7FEFD9B
:100990000F214720FFF73CFF0A20FFF7F7FD00215A
:1009A0004820FFF735FF0A20FFF7F0FDEA21492034
:1009B000FFF72EFF0A20FFF7E9FD03214A20FFF78A
:1009C00027FF0A20FFF7E2FD0C214B20FFF720FF55
:1009D0000A20FFF7DBFD10BD70B505464FF48051CE
:1009E000204800F04AFC0A20FFF7D0FD102000F05C
:1009F0007DF80A20FFF7CAFD4FF48051194800F036
:100A00003AFC4FF40061174800F035FC00BF0821A4
:100A10001A4800F016FC0128F9D04FF48051114813
:100A200000F02BFC0A20FFF7B1FD002406E0FF20B8
:100A300000F05CF828706D1C601CC4B2092CF6DB59
:100A40004FF40061074800F018FC112000F04EF848
:100A50000A20FFF79BFD4FF48051024800F00BFC89
:100A600070BD0000000C0140414453313239322046
:100A700049443A253032780D0A0000000008014050
:100A800008B50121082000F085FA0121880300F053
:100A90008EFA4FF46040ADF8000018208DF8030086
:100AA00003208DF802006946264800F037FB4FF41A
:100AB0006041244800F0DFFB0020234908804FF408
:100AC0008270488000208880C88001200881400210
:100AD0004881202088810020C88108821B4800F0BE
:100AE0001FFD0121194800F0C0FD08BD70B5054685
:100AF000002407E0601C84B244F62060844201DDDB
:100B0000002070BD0221114800F033FE0028F1D012
:100B100029460E4800F0DAFD002407E0601C84B28C
:100B200044F62060844201DD0020EAE70121074805
:100B300000F01FFE0028F1D0044800F0C9FDC0B24B
:100B4000DFE70000000C01403005002000380040C5
:100B500008B50121052000F01DFA4FF48070ADF8B2
:100B6000000003208DF8020048208DF8030069463C
:100B7000194800F0D3FA08BD1CB50821002000F088
:100B8000E3FB4FF48070009000208DF804000C20EF
:100B90008DF8050001208DF80600684600F01AFC6B
:100BA0001CBD08B54FF4A06000F018F817208DF8B0
:100BB000000001208DF801008DF802008DF803007F
:100BC000684600F010F808BD10B5FFF7C1FFFFF749
:100BD000E8FFFFF7D1FF10BD000801403149014394
:100BE000314A1160704770B5002100230F22C4788C
:100BF00004B32D4C246804F4E064C4F5E064210AD5
:100C0000C1F10403CA40447804FA03F18478144023
:100C100021430901254C0678A155047804F01F05ED
:100C20000124AC4005786D11AD0005F1E025C5F853
:100C3000004109E0047804F01F050124AC401C4D7C
:100C40000678761145F8264070BD1A4A0A400243DC
:100C5000154B1B1F1A60704739B1134A121D1268D9
:100C60000243114B1B1D1A6006E00F4A121D126849
:100C700082430D4B1B1D1A607047042808D14FF0AA
:100C8000E021096941F004014FF0E022116107E021
:100C90004FF0E021096921F004014FF0E0221161D9
:100CA000704700000000FA050CED00E000E400E0F1
:100CB00080E100E080FFFF1FDF48006840F0010096
:100CC000DD49086008464068DC490840DA49486068
:100CD00008460068DA490840D749086008460068B5
:100CE00020F4802008600846406820F4FE00486038
:100CF0004FF41F0088607047CF49096821F48031A4
:100D0000CD4A11601146096821F480211160B0F5C7
:100D1000803F03D0B0F5802F0ED106E0C6490968A8
:100D200041F48031C44A116007E0C349096841F4C5
:100D3000A021C14A116000E000BF00BF704710B59C
:100D400001460022002300204A11012A02D1BA4C98
:100D5000236806E0022A02D1B74C236A01E0B64CB0
:100D6000636A01F01F02012494401C400CB1012071
:100D700000E0002010BD38B50020009000240025C0
:100D800000BF3120FFF7DBFF05460098401C0090B4
:100D90000098B0F5A06F01D0002DF2D03120FFF700
:100DA000CEFF08B1012400E00024204638BD0146F2
:100DB0000020A14A106820F0F80040EAC10010604D
:100DC0007047A04908607047024600209A4B586857
:100DD00020F47C1042EA01031843974B5860704797
:100DE00098490866704701460020934A506820F0F1
:100DF00003000843506070478F48406800F00C00C3
:100E00007047014600208C4A506820F0F0000843EB
:100E10005060704701460020874A506820F4E06027
:100E200008435060704701460020834A506820F410
:100E3000605040EAC1005060704729B17E4A527A42
:100E400002437D4B5A7204E07B4A527A82437A4BCA
:100E50005A7270477B49D8310860704701460020BC
:100E6000754A506820F440400843506070470021A4
:100E7000714A20321170704A82F82010012802D085
:100E800004280AD104E001216B4A2032117005E0E8
:100E90000521694A2032117000E000BF00BF704791
:100EA0006949086070476449096A0143624A1162EE
:100EB0007047654944390860704730B50021002209
:100EC000002400235C4D6D6805F00C0121B104295C
:100ED00005D0082923D105E05C4D056022E05B4D7B
:100EE00005601FE0544D6D6805F47012524D6D6839
:100EF00005F48034022505EB92421CB9544D55434C
:100F000005600BE04C4D6D6805F400351DB1504D8A
:100F10005543056002E04D4D5543056002E04B4DE1
:100F2000056000BF00BF444D6D6805F0F001090980
:100F3000484D6B5C0568DD4045603F4D6D6805F4CC
:100F4000E061090A434D6B5C4568DD4085603A4DC0
:100F50006D6805F46051C90A3E4D6B5C4568DD4023
:100F6000C560354D6D6805F44041890B3A4D6B5CA9
:100F7000C568B5FBF3F5056130BD29B12E4A52694C
:100F800002432D4B5A6104E02B4A526982432A4B9B
:100F90005A61704729B1284A92690243264B9A61E7
:100FA00004E0254A92698243234B9A61704729B134
:100FB000214AD2690243204BDA6104E01E4AD26919
:100FC00082431D4BDA61704729B11B4AD268024344
:100FD000194BDA6004E0184AD2688243164BDA6093
:100FE000704729B1144A12690243134B1A6104E095
:100FF000114A12698243104B1A61704712494039F5
:10100000086070470F49C86470470B49C871704742
:101010000948406A40F080700749486270470146BD
:101020000020054A92680A400AB1012000E0002031
:101030007047014988727047001002400000FFF8B5
:10104000FFFFF6FE000042428004424200127A0096
:1010500000093D00360000204600002010B504467F
:10106000CC48844208D101210420FFF7ADFF0021C4
:101070000420FFF7A9FF46E0C748844208D10121B8
:101080000820FFF7A1FF00210820FFF79DFF3AE0AD
:10109000C248844208D101211020FFF795FF0021AA
:1010A0001020FFF791FF2EE0BD48844208D10121B6
:1010B0002020FFF789FF00212020FFF785FF22E095
:1010C000B848844208D101214020FFF77DFF00216C
:1010D0004020FFF779FF16E0B348844208D1012190
:1010E0008020FFF771FF00218020FFF76DFF0AE0ED
:1010F000AE48844207D101218015FFF765FF00212A
:10110000A015FFF761FF10BD10B501210846FFF7DC
:101110005BFF00210120FFF757FF10BD2DE9F041D3
:10112000024600250026002000230024002791F815
:1011300003C00CF00F0591F803C00CF0100CBCF1CB
:10114000000F03D091F802C04CEA050591F800C0E9
:10115000BCF1000F31D0146800202BE04FF0010CDF
:101160000CFA00F3B1F800C00CEA03069E4220D14D
:1011700083004FF00F0C0CFA03F7BC4305FA03FC95
:101180004CEA040491F803C0BCF1280F06D14FF0DB
:10119000010C0CFA00FCC2F814C00AE091F803C07C
:1011A000BCF1480F05D14FF0010C0CFA00FCC2F85D
:1011B00010C0401C0828D1D31460B1F800C0BCF1A5
:1011C000FF0F34DD546800202EE000F1080C4FF0D2
:1011D000010808FA0CF3B1F800C00CEA03069E42BD
:1011E00021D183004FF00F0C0CFA03F7BC4305FA32
:1011F00003FC4CEA040491F803C0BCF1280F05D1AC
:1012000000F1080C08FA0CF8C2F8148091F803C039
:10121000BCF1480F07D100F1080C4FF0010808FAA3
:101220000CF8C2F81080401C0828CED35460BDE8EA
:10123000F0814FF6FF710180022181700421C1709D
:1012400070470246002093680B400BB1012000E07C
:10125000002070470146886880B27047024600202F
:10126000D3680B400BB1012000E00020704701461D
:10127000C86880B2704701617047416170470AB128
:10128000016100E041617047C16070474FF48032F6
:101290000A43826181618261826982697047024684
:1012A0000020434B18684FF68073184040EA021044
:1012B00008433F4B186070473E49C8617047F0B51E
:1012C0000A46002300240021002500F00046B6F164
:1012D000004F02D1364EF16901E0354E7168C0F31E
:1012E000034583B200F44016B6F5401F08D121F043
:1012F00070612F4E766826F070662D4F7E6012E08A
:1013000000F48016B6F5801F06D1032606FA05F410
:10131000A14341F0706106E0460D360103FA06F67E
:10132000B14341F0706122B1460D360103FA06F671
:10133000314300F00046B6F1004F02D11C4EF1617E
:1013400001E01B4E7160F0BD30B500228B071C0F11
:101350000F2303FA04F2164B08338C1053F8243091
:101360009343134C08348D1044F8253023468C10D9
:1013700053F824308C07240F00FA04F423430C4C58
:1013800008348D1044F8253030BD0A49DC3108603E
:101390007047000000080140000C014000100140AF
:1013A0000014014000180140001C014000200140D1
:1013B0000000014000002042002044490860091D4F
:1013C0000860091D0860091D086041483F49143143
:1013D0000860704700213D498279002A3AD00A46C8
:1013E000126803689A430B461A600A1D1268036864
:1013F0009A430B1D1A60027911440A6803681A4364
:101400000A60324A0832126803689A432F4B083345
:101410001A601A1D126803689A432C4B0C331A6029
:101420004279102A0ED11A1F126803681A43274BFB
:1014300008331A601A1D126803681A43234B0C33D1
:101440001A600DE02149427911440A6803681A4381
:101450000A6005E0027911440A6803689A430A6049
:1014600070470021016001710C21417100218171DF
:1014700070471649103109680143144A103211604F
:10148000704701460020114A143212680A400AB11E
:10149000012000E0002070470C49143108607047BB
:1014A000014600200022094B1B6803EA0102074B9A
:1014B00014331B680B4013B10AB1012000E0002077
:1014C0007047024914310860704700000004014071
:1014D000FFFF0F0010B50446BE48844208D1012129
:1014E0008014FFF771FD0021A014FFF76DFD16E0D9
:1014F000B948844208D101210014FFF772FD002190
:101500002014FFF76EFD0AE0B448844207D10121A0
:10151000C013FFF766FD0021E013FFF762FD10BD69
:1015200010B50022028802F441520B884C882343F4
:101530008C882343CC8823430C8923434C89234341
:101540008C892343CC8923431A430280838B4FF237
:10155000FF74234083830B8A038210BD2DE9F04F73
:1015600085B005460C464FF0000902274FF00008F1
:101570004FF0010B0026B246A88B4FF24001084005
:10158000A88302202884B5F81C90A068022801D105
:1015900000BF38E0A08810B94FF0010B01E04FF018
:1015A000020B8D48854200D100E000BF6846FFF77E
:1015B00084FCDDF800A0E088B0F5007F0AD14FEA96
:1015C0001A2000EB80004000A168B0FBF1F0401D44
:1015D00086B20BE04FEA4B10BAFBF0F000EB800054
:1015E0004000A168B0FBF1F0401D86B20A20B6FBB6
:1015F000F0F606F00108A6EB0800C0F34F074FF61F
:10160000FF7000EA0828022F01DBFF2F02DD02270E
:101610004FF00008E08840EA080038432884A0889A
:10162000A1890843618808432188084340F4006089
:1016300040EA0909A5F81C9005B0BDE8F08F00212B
:10164000018041808180C180018141818181C1818E
:101650000721018270470021018041808180C18083
:101660000221816000218181704721B1028842F00E
:101670004002028004E002884FF6BF731A400280E5
:10168000704721B1828B42F48062828304E0828BB6
:101690004FF6FF331A408283704730B50024002391
:1016A0000C110125A540ABB21AB185881D43858078
:1016B00002E085889D43858030BD1AB183880B4345
:1016C000838002E083888B438380704781817047E9
:1016D0000146888970474FF6FF62914204D0028824
:1016E00042F48072028004E002884FF6FF631A40E1
:1016F0000280704721B1828842F00402828004E0B7
:1017000082884FF6FB731A408280704702884FF23E
:10171000FF731A40028002880A43028070470188E2
:1017200041F480510180704721B1028842F4005297
:10173000028004E002884DF6FF731A400280704771
:1017400002460020012901D0108B00E0908A7047EA
:101750000146088A7047B1F5804F04D1028842F4EF
:101760008042028004E002884BF6FF731A40028038
:1017700070470246002013890B400BB1012000E0A6
:1017800000207047CA4302817047F0B5024600202E
:1017900000240023002501F00F070126BE40B4B24B
:1017A0000B1101269E40B3B2968806EA03051689FE
:1017B000264016B10DB1012000E00020F0BD10B5AB
:1017C000002201F00F040123A3409AB2D343038106
:1017D00010BD00000030014000380040003C0040D7
:1017E00010B50446FB48844209D101218803FFF764
:1017F000EBFB00214FF48040FFF7E6FB32E0F648B8
:10180000844209D101214804FFF7EBFB00214FF48A
:101810000030FFF7E6FB25E0F048844209D10121C2
:101820008804FFF7DEFB00214FF48020FFF7D9FB8F
:1018300018E0EB48844209D10121C804FFF7D1FB2D
:1018400000214FF40020FFF7CCFB0BE0E548844279
:1018500008D101210805FFF7C4FB00214FF48010D7
:10186000FFF7BFFB10BD2DE9F04786B005460E46D9
:101870000024A24600BFA1460027B08900B100BFE6
:101880002F462C8A4CF6FF700440F08804432C82CB
:10189000AC894EF6F3100440B08831890843718951
:1018A00008430443AC81AC8A4FF6FF400440B08942
:1018B0000443AC8201A8FFF700FBC648874202D16F
:1018C000DDF810A001E0DDF80CA0A88900F40040CC
:1018D00040B10AEBCA0000EB0A1031684900B0FBC6
:1018E000F1F807E00AEBCA0000EB0A103168890042
:1018F000B0FBF1F86420B8FBF0F00401200964218A
:1019000001FB1089A88900F4004040B1322000EBAF
:10191000C900B0FBF1F000F00700044308E03220FA
:1019200000EB09106421B0FBF1F000F00F0004435C
:101930002C8106B0BDE8F0874FF4165101600021FC
:101940008180C18001810C2141810021818170470A
:1019500010B502460020108A4FF2FF0318400B8892
:101960004C8823438C882343CC882343184310821C
:1019700010BD0021018041808180C180704721B16C
:10198000828942F40052828104E082894DF6FF731D
:101990001A4082817047F0B50346002400260025D6
:1019A000002040F66A17B94200D100BF1846C1F3C3
:1019B000421401F01F06012707FA06F5012C01D198
:1019C0000C3004E0022C01D1103000E014301AB1C8
:1019D00007682F43076002E00768AF430760F0BD68
:1019E0001AB1838A0B43838202E0838A8B4383820A
:1019F0007047028A4FF6F0731A400282028A0A4345
:101A00000282704782894FF2FF731A408281828975
:101A10000A438281704721B1828942F002028281A9
:101A200004E082894FF6FD731A4082817047028A72
:101A30004FF6DF731A400282028A0A43028270471D
:101A400021B1028A42F48042028204E0028A4BF60B
:101A5000FF731A4002827047C1F308028280704708
:101A600001468888C0F308007047818941F0010170
:101A700081817047028BD2B20283028B42EA01223B
:101A800002837047028B02F47F420283028B0A4377
:101A90000283704721B1828A42F02002828204E0F0
:101AA000828A4FF6DF731A408282704721B1828AA0
:101AB00042F01002828204E0828A4FF6EF731A40ED
:101AC0008282704721B1828A42F00802828204E059
:101AD000828A4FF6F7731A408282704721B1828959
:101AE00042F40042828103E08289C2F30E028281C5
:101AF000704721B1828A42F40062828204E0828AC5
:101B00004FF2FF731A4082827047828A4FF6FB734E
:101B10001A408282828A0A438282704721B1828A75
:101B200042F00202828204E0828A4FF6FD731A407C
:101B30008282704702460020B1F5007F00D100BFCD
:101B400013880B400BB1012000E00020704701F426
:101B50000072B2F5007F00D100BFCA430280704717
:101B600070B50246002400230025002040F66A16C6
:101B7000B14200D100BFC1F3421501F01F0301269D
:101B800006FA03F3012D02D19689334006E0022DB7
:101B900002D1168A334001E0968A33400C120126A6
:101BA00006FA04F41688344013B10CB1012000E0A9
:101BB000002070BD10B50022002340F66A14A14237
:101BC00000D100BF0A1201249440A3B2DC43048078
:101BD00010BD0000003801400044004000480040B3
:101BE000004C0040005000400CB5002001900090D7
:101BF0006C48006840F480306A49086000BF69485A
:101C0000006800F4003000900198401C019000989A
:101C100018B90198B0F5A06FF1D16248006800F4DE
:101C2000003010B10120009001E0002000900098E9
:101C3000012843D15C48006840F010005A49086010
:101C40000846006820F0030008600846006840F07D
:101C5000020008605348406852494860084640689E
:101C600048600846406840F4806048600846406824
:101C700020F47C1048600846406840F4E810486052
:101C80000846006840F08070086000BF4548006862
:101C900000F000700028F9D04248406820F00300AE
:101CA000404948600846406840F00200486000BF74
:101CB0003C48406800F00C000828F9D10CBD10B574
:101CC000FFF792FF10BD10B53648006840F00100E4
:101CD0003449086008464068344908403149486042
:101CE00008460068324908402E49086008460068E6
:101CF00020F4802008600846406820F4FE00486018
:101D00004FF41F008860FFF7DAFF4FF000602949A9
:101D1000086010BD10B5002100200022214B5B6837
:101D200003F00C0121B1042906D0082928D107E0CD
:101D3000214B224C236027E01F4B204C236023E0E3
:101D4000184B5B6803F47010164B5B6803F4803229
:101D5000022303EB904022B9194B4343174C2360F5
:101D60000DE0104B5B6803F4003323B1144B434385
:101D7000124C236003E0104B4343104C236003E0FC
:101D80000D4B0E4C236000BF00BF064B5B68C3F3D6
:101D900003130C4CE15C094B1B68CB40074C2360E0
:101DA00010BD000000100240002002400000FFF8BB
:101DB000FFFFF6FE08ED00E000127A004C00002064
:101DC00000093D00500000200948804709480047AD
:101DD000FEE7FEE7FEE7FEE7FEE7FEE7FEE7FEE7DB
:101DE000FEE7FEE704480549054A064B7047000038
:101DF000C71C000831010008A8050020A80B00201E
:101E0000A8070020A80700202DE9FF4FA3B06FF01E
:101E100003022398239940680290896820912399AE
:101E20000988189102EB8101084403902698C008A4
:101E30001F9000F084831898C008219024980168AE
:101E4000039801602498039950F8042F41F8042F57
:101E500050F8042F41F8042F50F8042F41F8042FB4
:101E600000220C9201921392129210920F920E92F3
:101E70000D92209D029C50F8042F41F8042F50F839
:101E8000042F41F8042F50F8042F41F8042F426822
:101E90004A60083108300391249054F8040B0B90E9
:101EA00054F804AB54F8040B089054F8049BDDF884
:101EB00084B054F8048BBBF1000F54F8047B54F841
:101EC000046B00F0B28200BF55F8040B009054F888
:101ED000040B0A9000990B9801F046FF11905046B0
:101EE000009901F041FF1B900099089801F03CFF18
:101EF00017904846009901F037FF1A904046009924
:101F000001F032FF19903846009901F02DFF16902C
:101F10003046009901F028FF159000990A9801F0C9
:101F200023FF149055F8040B009054F8040B0B9009
:101F30001199019801F068FD01901B99139801F027
:101F400063FD13901799129801F05EFD12901A9993
:101F5000109801F059FD109019990F9801F054FD57
:101F60000F9016990E9801F04FFD0E9015990D984F
:101F700001F04AFD0D9014990C9801F045FD0C906C
:101F80005046009901F0F0FE11900099089801F078
:101F9000EBFE1B904846009901F0E6FE1790404684
:101FA000009901F0E1FE1A903846009901F0DCFE3C
:101FB00019903046009901F0D7FE169000990A98C2
:101FC00001F0D2FE159000990B9801F0CDFE14900F
:101FD00055F8040B009054F804AB1199019801F0E6
:101FE00013FD01901B99139801F00EFD13901799A2
:101FF000129801F009FD12901A99109801F004FD51
:10200000109019990F9801F0FFFC0F9016990E98F7
:1020100001F0FAFC0E9015990D9801F0F5FC0D9069
:1020200014990C9801F0F0FC0C900099089801F0BC
:102030009BFE11904846009901F096FE1B90404689
:10204000009901F091FE17903846009901F08CFE3E
:102050001A903046009901F087FE199000990A986D
:1020600001F082FE169000990B9801F07DFE15900C
:102070005046009901F078FE149055F8040B00903A
:1020800054F8040B08901199019801F0BDFC0190DF
:102090001B99139801F0B8FC13901799129801F04E
:1020A000B3FC12901A99109801F0AEFC1090199997
:1020B0000F9801F0A9FC0F9016990E9801F0A4FC5E
:1020C0000E9015990D9801F09FFC0D9014990C98A5
:1020D00001F09AFC0C904846009901F045FE1190E1
:1020E0004046009901F040FE1B903846009901F0EF
:1020F0003BFE17903046009901F036FE1A90009989
:102100000A9801F031FE199000990B9801F02CFE0D
:1021100016905046009901F027FE159000990898F6
:1021200001F022FE149055F8040B009054F8049B23
:102130001199019801F068FC01901B99139801F026
:1021400063FC13901799129801F05EFC12901A9993
:10215000109801F059FC109019990F9801F054FC57
:102160000F9016990E9801F04FFC0E9015990D984E
:1021700001F04AFC0D9014990C9801F045FC0C906C
:102180004046009901F0F0FD11903846009901F0A9
:10219000EBFD1B903046009901F0E6FD1790009989
:1021A0000A9801F0E1FD1A9000990B9801F0DCFD0E
:1021B00019905046009901F0D7FD169000990898A3
:1021C00001F0D2FD15904846009901F0CDFD149024
:1021D00055F8040B009054F8048B1199019801F004
:1021E00013FC01901B99139801F00EFC13901799A2
:1021F000129801F009FC12901A99109801F004FC51
:10220000109019990F9801F0FFFB0F9016990E98F6
:1022100001F0FAFB0E9015990D9801F0F5FB0D9069
:1022200014990C9801F0F0FB0C903846009901F0DD
:102230009BFD11903046009901F096FD1B9000998E
:102240000A9801F091FD179000990B9801F08CFD10
:102250001A905046009901F087FD1990009908984E
:1022600001F082FD16904846009901F07DFD159021
:102270004046009901F078FD149055F8040B009049
:1022800054F8047B1199019801F0BEFB01901B9951
:10229000139801F0B9FB13901799129801F0B4FB51
:1022A00012901A99109801F0AFFB109019990F989D
:1022B00001F0AAFB0F9016990E9801F0A5FB0E9065
:1022C00015990D9801F0A0FB0D9014990C9801F050
:1022D0009BFB0C903046009901F046FD119000994F
:1022E0000A9801F041FD1B9000990B9801F03CFD0C
:1022F00017905046009901F037FD1A900099089800
:1023000001F032FD19904846009901F02DFD16901C
:102310004046009901F028FD15903846009901F0DB
:1023200023FD149055F8040B009054F8046B119998
:10233000019801F069FB01901B99139801F064FB6F
:1023400013901799129801F05FFB12901A99109848
:1023500001F05AFB109019990F9801F055FB0F905E
:1023600016990E9801F050FB0E9015990D9801F0FA
:102370004BFB0D9014990C9801F046FB0C900099C2
:102380000A9801F0F1FC119000990B9801F0ECFC17
:102390001B905046009901F0E7FC179000990898AF
:1023A00001F0E2FC1A904846009901F0DDFC19901A
:1023B0004046009901F0D8FC16903846009901F08B
:1023C000D3FC15903046009901F0CEFC1490ABF18F
:1023D000010B1199019801F017FB01901B991398BB
:1023E00001F012FB13901799129801F00DFB129057
:1023F0001A99109801F008FB109019990F9801F0A4
:1024000003FB0F9016990E9801F0FEFA0E901599A5
:102410000D9801F0F9FA0D9014990C9801F0F4FA66
:102420000C90BBF1000F7FF44FAD189810F0070B24
:1024300063D000BF55F8040B009054F8040B0A90C9
:1024400000990B9801F090FC11905046009901F012
:102450008BFC1B900099089801F086FC1790484669
:10246000009901F081FC1A904046009901F07CFC33
:1024700019903846009901F077FC16903046009983
:1024800001F072FC159000990A9801F06DFCCDF8EE
:102490002CA0DDF820A0CDF82090C1461490B846BD
:1024A00037460A9E1199019801F0AEFA01901B99E6
:1024B000139801F0A9FA13901799129801F0A4FA51
:1024C00012901A99109801F09FFA109019990F988C
:1024D00001F09AFA0F9016990E9801F095FA0E9065
:1024E00015990D9801F090FA0D9014990C9801F03F
:1024F0008BFA0C90BBF1010B9CD10298203002901A
:102500002599019808602598139940F8041F12999D
:1025100040F8041F109940F8041F0F9940F8041F59
:102520000E9940F8041F0D9940F8041F0C99416062
:10253000083025901F98401E1F907FF47FAC26988E
:1025400010F0070850D02498002501680398016016
:102550002498209E001D24900398029C001D039047
:10256000DDF860903168206801F0FEFB294601F03B
:102570004BFA371D261D0546B9F1010429D0B4F1E7
:10258000004F7DD2002C24DD361F3F1F14F0010FB9
:1025900009D057F8041F56F8040F01F0E5FB29464F
:1025A00001F032FA0546641013D07968706801F0C2
:1025B000DBFB294601F028FA054657F8081F56F8B4
:1025C000080F01F0D1FB294601F01EFA0546641EF2
:1025D000EBD1259805602598001D25900298001DD7
:1025E0000290B8F10108AED12398189940684C1EAA
:1025F000A30820D0B3F1004F56D2002B1BDD029A66
:1026000001469C4652F8045B41F8045B52F8045BB7
:1026100041F8045B52F8085B41F8085B52F8045C2F
:1026200041F8045CBCF1010CECD1029900EB031001
:1026300001EB0311029114F0030104BF27B0BDE8C0
:10264000F08FB1F1004F44D20029DCBF27B0BDE8C4
:10265000F08F031F029A121F11F0010F03D052F8DE
:10266000040F43F8040F480804BF27B0BDE8F08FFB
:102670005168596052F8081F43F8081F401E00E0D7
:1026800003E0F5D127B0BDE8F08F3968306801F07C
:102690006BFB294601F0B8F90546641E06F10406F5
:1026A00007F10407F1D194E70299096840F8041B87
:1026B000029951F8042F40F8042B51F8042F40F8E8
:1026C000042B4A68083140F8042B02915B1EEBD1C1
:1026D000B1E7029A126840F8042B029A121D029286
:1026E000491EF6D127B0BDE8F08F70B504460498B6
:1026F000218008448000011F1D461846A26000F09A
:102700003BF9656070BD70470FB4044910B503AA6A
:10271000029800F0C3FB10BC5DF814FB30000020F1
:1027200070B5044685690068C10601D5302600E011
:102730002026C00707D070BDD4E90121304690475C
:10274000206A401C20626D1EF6D570BD70B504462F
:1027500085690078C00707D170BDD4E90121202028
:102760009047206A401C20626D1EF6D570BD0000A7
:102770002DE9F0410646002410687529314616A55A
:1027800010D0AFF30080002802DA404213A507E022
:1027900031688A0701D512A502E0490704D511A5C1
:1027A000012401E0AFF3008000210A2206F1240792
:1027B00009E0B0FBF2FCB0FBF2F302FB1C0030308E
:1027C00078541846491C0028F3D123462A4630463F
:1027D000BDE8F04100F0FBB8000000002D00000053
:1027E0002B0000002000000070B504460D46214675
:1027F0001068AFF300802188090502D50F4A7A449A
:1028000002E00E4A7A440E32002104F1240305E06E
:1028100000F00F060009965D5E54491C0028F7D1B0
:1028200020780023000704D5702D02D009B10223BF
:1028300011322046BDE8704000F0C9B8621C0000AB
:102840002DE9F05F894604464FF0000ADFF824B115
:10285000FB44C0F820A02046E168884700287DD0CE
:10286000252806D0D4E901219047206A401C206227
:10287000F1E700255F462046E168884720280646A4
:1028800007DB312E05D2B81910F8200C08B105432A
:10289000F1E7A80701D525F00405C4F81CA000271E
:1028A000C4F818A02A2E09D0304601F05EF838B3DB
:1028B00004EB8708303EC8F8186019E059F8041B8B
:1028C000204604EB87029161E1688847012F0646A4
:1028D00018D1E069002820DA25F020051DE0D8F89D
:1028E000180000EB800006EB40003038C8F81800F4
:1028F0002046E1688847064601F037F80028EED107
:10290000012F0AD02E2E08D12046E16888477F1C6F
:102910000646022F45F02005C4DBA069002803DA33
:10292000404245F00105A061E80701D025F01005FF
:10293000A6B1A6F14100192802D8203645F4006559
:102940004A463146204625604D46FDF72BFC60B1D6
:10295000012807D0ED1D25F0070000E007E000F199
:10296000080978E705F1040975E730467AE7206A37
:10297000BDE8F09F381C00004FF0000200B5134680
:1029800094469646203922BFA0E80C50A0E80C508F
:10299000B1F12001BFF4F7AF090728BFA0E80C5040
:1029A00048BF0CC05DF804EB890028BF40F8042B39
:1029B00008BF704748BF20F8022B11F0804F18BFA6
:1029C00000F8012B704770477047704770472DE93A
:1029D000F0470D4699469246044600F124080168E6
:1029E000880604D5E06921F01001216000E0012093
:1029F000A84201DD471B00E00027A1697A1902EB1C
:102A00000900081AA0612078C00602D42046FFF70A
:102A100087FE002608E0D4E901211AF80600904755
:102A2000206A401C761C20624E45F4DB2078C006EC
:102A30000AD52046FFF774FE06E0D4E901213020D4
:102A40009047206A401C2062381EA7F10107F4DC81
:102A500007E0D4E9012118F805009047206A401CDE
:102A60002062281EA5F10105F3DC2046FFF76EFE6B
:102A70002078000602D50220BDE8F0870120FBE7A0
:102A800070472DE9FF4F0C461E464FF0FF378BB0C5
:102A9000D2E90001DDF860800A908A46C1F30A5548
:102AA00005B93D46002108464FF00000BAF1000F7D
:102AB00000F4400005DA00EB80004FF4400101EA29
:102AC00050004FEA9059B9F1010F00DDB9460A985C
:102AD00050EA4A000ED044F61050A5F2FF354543A7
:102AE0002F14B8F1000F1ED07542291E1EDDC9F14A
:102AF00000021CE0B8F1010F4FF0000001D03021BE
:102B000003E0F24305E02154401CB042FBDB3046B9
:102B10000022002121540B99C1F80880C1E900204E
:102B20000FB0BDE8F08FBD1B6D1CDEE74A4600DA32
:102B3000694206A800F066FA06AB93E8070003AB0B
:102B400083E8070050460A9900F040FB8DE8070033
:102B5000A0F500501F3800900398002D09DD42F2C7
:102B60001F014A46084403A90390684600F09FFDF0
:102B700008E0A0F500504A461F3803A903906846B4
:102B800000F0A9FD8DE807000004000C03D04FF011
:102B9000FF30410800E01046B8F1000F03D00022DA
:102BA000009215461EE0751E05D400F08DF93032F6
:102BB00062556D1EF9D5B3460122084302D00022AA
:102BC0007F1C04E02078302801D100227F1E002ADB
:102BD000099786D01DE0112D07DA00F075F9303223
:102BE00062556D1C50EA0102F5D1084302D00098ED
:102BF000C8B10EE00021681E05E0235C625C6354EE
:102C00002254401E491C8142F7DBAB46A81B401EE4
:102C10000990002004F80B000B98099AC0F808806E
:102C2000C0E9002B7CE711264FF0000859E72DE999
:102C3000F04F88460446D21D22F0070191B0D1E939
:102C40000001CDE90A0100F07CFE02460B98C00F9E
:102C500001D02D2007E02068810701D52B2002E05C
:102C6000202101EAC000032A099001D0072A05DBD0
:102C700003464146204600F085F90BE120788006A6
:102C800001D5E06900E00620B8F1650F814606D065
:102C9000B8F1660F18D0B8F1670F70D131E000209D
:102CA000B9F1110F009001DB112301E009F10103DB
:102CB0000AAA01A90CA8FFF7E4FEDDE90C700026C2
:102CC00009F10105834647E001204B4600904FF093
:102CD00000470AAA01A90CA8FFF7D3FEDDE90DB051
:102CE0000C995D46002610B909F101000D18B9EBE9
:102CF000050003D4C0F1FF3609F10105A5EB090079
:102D00002BE0B9F1010F01DA4FF001090020B9F110
:102D1000110F0090484601DD112300E003460AAA86
:102D200001A90CA8FFF7ADFEDDE90C704D460026A9
:102D30008346207800070AD4AB4500DA5D4601A837
:102D4000012D04DD411911F8011C302907D04F4530
:102D500002DA17F1040F04DA012082460FE06D1E3B
:102D6000EEE7002F02DCED1B3E4403E0781CA84296
:102D700000DD7D1CB81B00F1010A4FF000472078F0
:102D8000000703D4AA4501DB4FF0FF3A0021B7F159
:102D9000004F0DF143088DF8431024D002202B235F
:102DA000002F01DA7F422D230A21021EA0F101002B
:102DB00000DC5FB197FBF1FC97FBF1F201FB1C7C9F
:102DC00017460CF1300C08F801CDEEE7A8F1010030
:102DD00003702188090501D5452100E06521A0F196
:102DE000010800F8011C09980FA9A1EB0807FF1DB5
:102DF00000B10120411901EBEA70A1693844081AB9
:102E0000401EA0612078C00602D42046FFF788FC4F
:102E1000099828B1D4E901219047206A401C20621A
:102E20002078C00622D52046FFF77AFC1EE0002E4F
:102E300004DBB34502DD01A8805D00E03020D4E969
:102E400001219047206A401C2062761CAAF10100F3
:102E50005FEA000A0AD100F033F8C0680168405CFC
:102E6000D4E901219047206A401C2062281EA5F168
:102E70000105DCDC07E0D4E9012118F8010B9047DB
:102E8000206A401C2062381EA7F10107F3DC2046AF
:102E9000FFF75CFC032011B043E60000074B70B560
:102EA0000D467B4400F05BF80446284600F018F914
:102EB00010B14FF0FF3070BD204670BD07D8FFFF46
:102EC000004870476405002030B5B0F10A024FEAAF
:102ED000900E71F100034EEA817EB0EB0E0061EBC3
:102EE00091014FEA101E4EEA017E10EB0E0041EBFD
:102EF00011114FEA102E4EEA016E10EB0E0041EB5D
:102F000011214FEA104E4EEA014E10EB0E0041EB3C
:102F10001141401841F100014FEAD00040EA4170F0
:102F20004FEAD10110EB80054FEA810444EA907426
:102F300044EB01046D1944EB0404521BA3414FF010
:102F4000000348BF0A3200D530BD401C41F10001EA
:102F500030BD000001694A1C02610878704700B565
:102F60008FB0CDE901310021059105497944CDE9C2
:102F7000031011466846FFF763FC0FB000BD000068
:102F8000E5FFFFFF2DE9F0411F46044603260168D7
:102F9000072A01F4006004DB08B116A505E016A5B8
:102FA00003E008B115A500E015A521F01000206090
:102FB000A069C01EA0610FB1401EA0612046FFF7AE
:102FC000AFFB4FB1D4E9012138469047206A401C3D
:102FD0002062C01C206206E0206AFAE7D4E90121E1
:102FE00015F8010B9047761EF8D22046FFF7AEFB8E
:102FF000BDE8F0814E414E006E616E00494E4600C4
:10300000696E66002DE9F047814616468AB033485E
:1030100078440DC88DE80D0030487844801C03AC1E
:103020000DC884E80D0041F69B300844372190FB21
:10303000F1F290FBF1F5A5F1800501FB12041B3CB8
:1030400002D56442012000E00020DFF890A0804615
:103050000027FA44AAF1BE0A0DE0E00709D0324683
:10306000684607EB47010AEB810100F034FB8DE86D
:10307000070064107F1C002CEFD1184F7F44AC3F39
:1030800018E0E80714D007EB04100DF1180A90E8D7
:103090000E008AE80E00C068F04201D1981908902D
:1030A000324606A903A800F016FB03AB83E807002D
:1030B0006D10641C002DE4D132466946B8F1000F52
:1030C00003A802D000F0F3FA01E000F004FBC9E924
:1030D0000001C9F808200AB0BDE8F0870815000013
:1030E000007B00F0800070470048704744050020D6
:1030F0007546FFF7F9FFAE4605006946534620F0D6
:103100000700854618B020B5FEF76CFEBDE82040EC
:103110004FF000064FF000074FF000084FF0000B93
:1031200021F00701AC46ACE8C009ACE8C009ACE846
:10313000C009ACE8C0098D46704710B50446AFF32E
:1031400000802046BDE81040FDF74CB84FF0013C30
:1031500050F8042B51F8043B9A4221D1A2EB0C0306
:10316000934313EACC1317D150F8042B51F8043BC6
:103170009A4215D1A2EB0C03934313EACC130BD163
:1031800050F8042B51F8043B9A4209D1A2EB0C03EE
:10319000934313EACC13DBD04FF00000704700BF1D
:1031A000D01A01BAB1FA81F101F0180122FA01F046
:1031B000CB40C1F12001DBB2C0B2C01A2CFA01F33E
:1031C000D11A914311EAC311E6D170475FEA400C6E
:1031D00008BF91F0000F4FEA8C234FEAC12243EA67
:1031E00051514FEA1C5018BF00F5F0404FEA300033
:1031F00018BF41F000415FEA6C5C00F02980BCF12F
:10320000FF3F08BF40F080407047130C06BF120418
:103210004FF0100C4FF0000C130E04BF12020CF113
:10322000080C130F04BF12010CF1040C930F04BF20
:1032300092000CF1020CD30F04BF52000CF1010CF0
:1032400011464FF00002A0F11F00A0EB0C007047E8
:1032500011F0004F08BF704731F000413FF4D5AF87
:103260000B0C06BF09044FF0100C4FF0000C0B0EB6
:1032700004BF09020CF1080C0B0F04BF09010CF18B
:10328000040C8B0F04BF89000CF1020CCB0F04BFA0
:1032900049000CF1010CCCF12003A0EB0C0022FA48
:1032A00003F302FA0CF241EA030100F10100704756
:1032B00020F07F4C80EA030023F07F47ACEB07034C
:1032C00003F57C5300F0004003F1FF032DE9804932
:1032D0004FEA154B09B44FEA144325EA0B4E24EA92
:1032E00003480FF2042606EB132749083E785FEAED
:1032F000320203FB0667C7F5000707FB06F64FEA35
:1033000054374FEAD64606F1020607FB066CCCF1AD
:10331000005C4FEA1C472CEA074C07FB06F40CFB49
:1033200006F504EB15464FEA961634BF00204FF021
:1033300000404FEAD13706FB07FC4FEA1C4C0CFB60
:103340000BF7D21B03FB0CF761EB07010CFB0EF72D
:10335000B0EB074072EB17420CFB08F734BFA2EB4F
:103360000742B2EB074261EB17414FEA0C444FEAC8
:10337000910706FB07FC4FEA1C4C0CFB0BF7B0EB6C
:10338000C74072EB573203FB0CF734BFA2EBC742C6
:10339000B2EBC74261EB57310CFB0EF7B0EBC70045
:1033A00072EB57720CFB08F734BFA2EBC702B2EB0B
:1033B000C70261EB5771039F4FEA816141EA9211A5
:1033C00004EBCC044FEAD1374FEA826206FB07FCDC
:1033D00042EA90124FEA80604FEA1C4C0CFB0BF75C
:1033E000D21B03FB0CF761EB07010CFB0EF7B0EBF4
:1033F000074072EB17420CFB08F734BFA2EB074201
:10340000B2EB074261EB17414FEA8C554FEA910747
:1034100004EB9C2406FB07FC4FEA1C4C0CFB0BF74F
:10342000B0EBC74072EB573203FB0CF734BFA2EB93
:10343000C742B2EBC74261EB57310CFB0EF7B0EB62
:10344000C70072EB57720CFB08F734BFA2EBC70240
:10345000B2EBC70261EB577115EB4C254FEA816166
:1034600041EA92114FEA82624FEAD13742EA901262
:1034700006FB07FC44F100044FEA80604FEA1C4C55
:103480000CFB0BF7D21B03FB0CF761EB07010CFBEA
:103490000EF7B0EB074072EB17420CFB08F734BF96
:1034A000A2EB0742B2EB074261EB174115EB1C158B
:1034B0004FEA813141EA92414FEA823242EA904238
:1034C0004FEA80304FEA0C7644F1000448EA0343A7
:1034D0004EEA0B484FF0000EB2EB080C71EB0307FD
:1034E00024BF624639464EEB0E0E4FF0000B00181B
:1034F000524149414BEB0B0BB2EB080C71EB03074C
:103500007BF1000B24BF624639464EEB0E0E4FF0A6
:10351000000B0018524149414BEB0B0BB2EB080C6E
:1035200071EB03077BF1000B24BF624639464EEB7B
:103530000E0E51EA020718BF46F0010616EB0E7692
:1035400055F1000254F1000103D5BDE88901BDE841
:103550000088BDE88901BDE80048B619524141EB39
:103560000101A3F10103704780807F7E7D7C7B7A1F
:103570007978777676757473727171706F6E6E6D1F
:103580006C6C6B6A6A6968686766666564646363C5
:1035900062616160605F5F5E5E5D5D5C5C5B5B5A4B
:1035A0005A595958585757565655555554545353B8
:1035B00052525251515050504F4F4F4E4E4D4D4D13
:1035C0004C4C4C4B4B4B4A4A4A494949484848475E
:1035D000474747464646454545444444444343439C
:1035E0004342424242414141002B26D4770021D040
:1035F0001CB54FEA370703B44FF010004FF010012D
:103600004FF000000FBCBDE810400BF1010BBBF107
:10361000010F08BF5FEA170722BF12F1010211F183
:1036200001014FF0004143F1000300F0004043EA84
:1036300000007047F9D35708DAE746EA064613F167
:10364000400F4FEA16461FDD13F1200FDFBF164370
:103650000A46002120335B42C8D0C3F1200746EA66
:10366000064602FA07F74FEA164646EA0706C3F18E
:10367000200722FA03F201FA07F721FA03F14FF0CB
:10368000000342EA0702B1E746EA020646EA0646B6
:103690004FEA164646EA0106BCBF46EA0646360C25
:1036A0004FF000034FF000024FF000019EE72DE9BC
:1036B000C048934630B491E8380007C831EA400C5E
:1036C00048BF34EA430C03D5FFF7F2FDFFF78CFF48
:1036D000F0BCBDE800882DE9C048934630B491E8BD
:1036E000380007C810F0804F08BF13F0804F03D197
:1036F00000F005F8FFF778FFF0BCBDE8008820F087
:103700007F4780EA030023F07F4C07EB0C03A3F50F
:103710007C5300F00040A3F1FE0392F0000F00F094
:10372000B38095F0000F00F077802DE901494FEA52
:1037300011404FEA144621EA004800FB06FC24EA47
:10374000064708FB06F607FB08F800FB07F718EB2F
:1037500006484CEB164C4FEA124B18EB07484FEA61
:1037600015464CEB174022EA0B4E0BFB06FC25EAF4
:1037700006470EFB06F607FB0EFE0BFB07F71EEBDC
:10378000064E4CEB164C4FF000061EEB074E4CEB72
:10379000174B18EB0B0840F1000018EB0E0B58EB21
:1037A000000840F100008F1A4FF000013CBFC943F0
:1037B000661B14BFB5EB040C00213CBFC943F61BCC
:1037C0004FEA17444EEA8E0E27EA04454FEA1C479B
:1037D00004FB07622CEA074C05FB07F70CFB05F618
:1037E00004FB0CFC16EB074642EB174216EB0C46AB
:1037F00042EB1C421BEB060658EB0202414146EA33
:103800009E0601D5BDE80189B619524141EB01017F
:10381000A3F10103BDE801894FEA14454FEA1147BE
:1038200024EA054621EA074C05FB07F406FB07F7E7
:103830000CFB06F105FB0CFC11EB074144EB1744B4
:103840004FEA124711EB0C4144EB1C4422EA074CAF
:1038500005FB07F206FB07F70CFB06F605FB0CFC65
:1038600016EB074642EB174216EB0C4642EB1C45A3
:103870006A1854F1000148BF7047B619524141EB34
:103880000101A3F10103704795F0000F37D04FEA13
:1038900011424FEA144721EA024624EA074C02FB90
:1038A00007F106FB07F70CFB06F402FB0CFC14EB1C
:1038B000074441EB17414FEA154714EB0C4441EB29
:1038C0001C4125EA074C02FB07F506FB07F70CFB3A
:1038D00006F602FB0CFC16EB074645EB174516EB0C
:1038E0000C4645EB1C42121951F1000148BF7047CC
:1038F000B619524141EB0101A3F1010370474FEAB0
:1039000014454FEA114724EA054621EA074C05FB16
:1039100007F106FB07F70CFB06F24FF0000605FB6C
:103920000CFC12EB074241EB174112EB0C4251EB3E
:103930001C4148BF7047921841EB0101A3F10103FC
:103940007047490050EAC12018BF04204A0D18BF33
:1039500040F0010040F2FF72B2EB515F08BF40F04F
:103960000200012808BF0520704730380A2801D21C
:10397000012070470020704710B500290AD0087850
:10398000002807D005487844FFF7E0FB002801D065
:10399000002010BD0248784410BD0000CE0B00008E
:1039A000C60B00000808A0F500114FEA310170476E
:1039B00043004FEAD30C4FEA3C0C43401FBF400783
:1039C0000CF1605113F0FE4F70471CF0006F03D1F3
:1039D00000200CF0004170470CF0004343EA5070A7
:1039E00010B540EACC0000F040FA00BF00000092A1
:1039F0004FEA0001FFF7D6BF4FF000414FF0000043
:103A0000A1F500217047000090EA010F48BF81F046
:103A1000004100F1AE82421A3CBF801A89184FEA79
:103A2000D0524FF07F4C1CEA410FA2EBD15318BF8C
:103A30009CEA026F00F03B804FF0004C4CEA002003
:103A40004CEA012121FA03FC10EB0C0C1ED202F10E
:103A5000FF325FEA1C2040EBC25038BF70471CF0B9
:103A60007F0F4FEA400C18BFBCF17F4F38BF704743
:103A7000C3F12003994008BF20F00100BCF17F4F43
:103A800038BF7047A0F1C04000F035BA4FEA3C00A3
:103A9000000A40EBC25028BF1CF0FF0F4FEA400C59
:103AA000E6D018BFBCF17F4F38BF7047EAE79CEA09
:103AB000026F05D010EA5C0F08BF00F000407047AD
:103AC00010B500F0D2F900BF64FBBE3E401058BFF5
:103AD000C0F14040491058BFC1F140418142EFF36D
:103AE000008070474FF47F0C1CEAD0121EBF1CEA06
:103AF000D11392EA0C0F93EA0C0F00F0858090EA44
:103B0000010F48BF42F4807240F4000C41F4000001
:103B10002CF07F4120F07F4000B58142A2EB0302F0
:103B20000FF2081CACEB504EC0F100009EF800E014
:103B30004FEA4E0E00FB0EFC38BF49004FEA2C1C2A
:103B400002F5FA020CFB0EF34FEACE1E4FEA112CDF
:103B50004FEAC1210EEB635E42EB22420EFB0CFCEE
:103B60004FEA1C5300FB03114FEA112C4FEA0131BD
:103B70000EFB0CFC4FEADC4C00FB0C11C14228BFD1
:103B800009184CEB03335DF804EB10EB410143EBF8
:103B9000C250B2F57C0F38BF704729D512F0F00F34
:103BA0001CBF00F1C04000F00040704700818283DC
:103BB0008485868788898B8C8D8E8F91929395963C
:103BC00097999A9C9D9FA0A2A3A5A7A8AAACAEB0C6
:103BD000B2B3B5B7B9BCBEC0C2C5C7C9CCCED1D4CB
:103BE000D7D9DCDFE2E6E9ECF0F3F7FAFE000000FB
:103BF0004FEA400C0CF1807CBCF17E4F28BF70472F
:103C0000B0F1C04000F077B990EA010F0CEAD1138F
:103C100048BF42F48072624538BF634507D213F44F
:103C20007F0F16D080EA010000F00040704710B509
:103C300000F01BF9097EFC3E00F005B880EA0100A7
:103C400000F00040704780EA010000F0004000F002
:103C500052B912F47F0F04BF0248704780EA010096
:103C600000F049B90000C07FC10DD1F19E0206DB12
:103C70004FEA002343F0004323FA02F0704700426A
:103C800007D54FEA4001B1F1FE4F02D24FF00000DC
:103C9000704710B500F0E9F8499224800020704781
:103CA0006FEA20007047000010F0004148BF40421A
:103CB000B0FA80F310FA03F2C3F19D030BD051EA7E
:103CC000C35101EB1220530638BF704700F10100C9
:103CD00008BF20F001007047B0FA80F310FA03F239
:103CE000C3F19D030AD0D90501EB1220530638BF5A
:103CF000704700F1010008BF20F00100704700008C
:103D000050EA010C00F113801CF5000F58BFBCF500
:103D1000000F01D48842704707D710F5000F58BF35
:103D200011F5000F15D488427047894270471CF581
:103D3000000F04D5BCF5000FF7D5814270474FF056
:103D4000807C1CEB400F38BF1CEB410F01D281423D
:103D5000704710B500F089F8922449004FF00050E8
:103D60004FF08051FFF7B2BE4FF47F0C1CEAD01227
:103D70001EBF1CEAD11392EA0C0F93EA0C0F00F05D
:103D8000478090EA010F48BF42F480724FF0004C28
:103D90004CEA00204CEA012102EB0302A0FB0113D4
:103DA000A2F50002002918BF43F001035B0028BF01
:103DB0004FEA330342EB22425FEA132C4CEBC25032
:103DC0002EBFBCEB436FB2F57C0F70474FEA036C1C
:103DD000BCF1004F08BF20F00100B2F57C0F38BFE6
:103DE00070470BD582F0FF0212F5803FC8BF7047C5
:103DF00000F1C040D8BF00F00040704700F5000C53
:103E00005FEA4C0C48BF7047B0F1C04000F073B897
:103E100090EA010F0CEAD11348BF42F48072624568
:103E200038BF634504D280EA010000F000407047CB
:103E300010B500F01AF800BF8900013E00F007B885
:103E400000F009B85FEA410C5FEA1C6C08D080EA18
:103E5000010000F050B85FEA400C5FEA1C6CF6D13C
:103E60004FF00040A0F5800070470EF1020E2EF0DA
:103E7000030E5EF8044B244204D44FEA4102B2F12F
:103E80007F4F11D84FEA4003B3F17F4F0CD80ED1CA
:103E90004FEAD07CB2F17F4F0CEB4C0C0CF1020CD2
:103EA00008BF4CEBD17C04E04FF0080C01E04FEA76
:103EB000D17C0CEB4C0324FA03F404F00704B4F1B6
:103EC000040C06D20EEB840CBDE810404CF0010C43
:103ED0006047DFE80CF0070802024FF00040A0F551
:103EE000800010BD0846420018BFD2F1807288BF22
:103EF00000F0004010BDFF2141EAD050C0057047DE
:103F000051EA000C00F113801CF5000F58BFBCF5FE
:103F1000000F01D48142704707D711F5000F58BF39
:103F200010F5000F15D481427047894270471CF587
:103F3000000F04D5BCF5000FF7D5884270474FF04D
:103F4000807C1CEB410F38BF1CEB400F01D2884234
:103F5000704780EA010081EA000180EA0100FFF772
:103F6000F8BE000090EA010F48BF81F000413FF524
:103F700052AD421A04D882F00042A0EB0200114474
:103F80004FEAD0524FF07F4C1CEA410FA2EBD153C5
:103F900018BF9CEA026F4AD04FF0004C4CEA002058
:103FA0004CEA012121FA03FCB0EB0C0C0FD412F007
:103FB000FE0F36D05FEA4C001DD5001240EBC25018
:103FC00038BF70471CF03F0F18BF70470BE0A2F1DD
:103FD00001025FEA1C2040EBC25038BF70471CF062
:103FE0007F0F18BF7047C3F12003994014BF401ED4
:103FF00020F00100704780084FEA122308BF704785
:10400000B0FA80FCA2EB0C02CCF1280C60FA0CF0A8
:1040100093EA122F04BF00EBC25070474FEAC370FF
:104020007047130A5FEADC1008BF7047F6E79CEAA6
:10403000026F04D010EA5C0F08BF0020704710B573
:10404000FFF713FF40DFF63E81F000407047FEF7B8
:10405000EEBD0000A3CE1338885A863948EF163AD1
:10406000DC245C3A01486E3AD37A3F3A40E7C639DD
:10407000A21B313876C388B8B5D54039EAE83F3A53
:104080008926AE3A706BD63A814EB93A1E75343AEB
:10409000A4AE57B9558148BAAE2A1BBADBB1AF39C5
:1040A000A3C5CD3A02B01B3BCCC20A3B2B5F2F3AD3
:1040B000B068B9BA0AD14BBB8FEC62BB24B30EBB5C
:1040C000FDF9B4386C4DFF3A0CD8033BF0A49CB911
:1040D0000DC18BBB639804BCACBE20BC4DD109BCE8
:1040E000519D96BB4DE622BAE358513A46AA01BB10
:1040F000418B09BC0D8880BCAD5BA5BCC3179EBCC1
:10410000757558BC5DCBA9BB9335E9B88EB0FFBAC5
:10411000A16838BC6134C7BC7ABE0DBDBDAE13BD4D
:104120001A25DABC6E3C27BCC6E7933BA71E033CAE
:104130008A44A1BBE20200BDD3B773BD63CB96BD79
:104140000B3A75BD5A5A5DBC70A36B3D1F87093E83
:104150001AFB453E01A55C3E1AFB453E1F87093E02
:1041600070A36B3D5A5A5DBC0B3A75BD63CB96BDCF
:10417000D3B773BDE20200BD8A44A1BBA71E033CB6
:10418000C6E7933B6E3C27BC1A25DABCBDAE13BD17
:104190007ABE0DBD6134C7BCA16838BC8EB0FFBA11
:1041A0009335E9B85DCBA9BB757558BCC3179EBCE8
:1041B000AD5BA5BC0D8880BC418B09BC46AA01BB88
:1041C000E358513A4DE622BA519D96BB4DD109BCF8
:1041D000ACBE20BC639804BC0DC18BBBF0A49CB9E1
:1041E0000CD8033B6C4DFF3AFDF9B43824B30EBB39
:1041F0008FEC62BB0AD14BBBB068B9BA2B5F2F3AC8
:10420000CCC20A3B02B01B3BA3C5CD3ADBB1AF39F0
:10421000AE2A1BBA558148BAA4AE57B91E75343AB6
:10422000814EB93A706BD63A8926AE3AEAE83F3AFF
:10423000B5D5403976C388B8A21B313840E7C639B6
:10424000D37A3F3A01486E3ADC245C3A48EF163A9A
:10425000885A8639A3CE1338D114E1B92CA8DAB91B
:104260007DF2D5B99E80D2B9EFC8CFB9242CCDB993
:1042700059F6C9B96E60C5B9A691BEB989A1B4B9DC
:10428000FE99A6B9A27993B9A66C74B9BF7F33B968
:104290009B0BC4B85E170A366D58F6389A8D85396F
:1042A0003CFCD9399FEB1D3A3402563ABFD58A3AC5
:1042B00031A3AE3ACE92D63A9C63013BD9AD193BBD
:1042C000CD31343BEEF4503B48F86F3B279C883BA4
:1042D0005A569A3B2D24AD3B9FFCC03B3BD4D53B6B
:1042E0001E9DEB3B8223013CAADF0C3C9DF8183C51
:1042F000DE62253CF311323C74F83E3C22084C3C13
:10430000FE31593C6666663C2C95733CDD56803C1C
:1043100094CF863C332C8D3C2B64933CF76E993CB8
:104320002F449F3C96DBA43C2C2DAA3C3E31AF3C55
:1043300075E0B33CE633B83C2025BC3C3AAEBF3C0C
:10434000DCC9C23C5073C53C85A6C73C1E60C93C55
:10435000749DCA3CA05CCB3C799CCB3CA05CCB3C24
:10436000749DCA3C1E60C93C85A6C73C5073C53CC1
:10437000DCC9C23C3AAEBF3C2025BC3CE633B83C6D
:1043800075E0B33C3E31AF3C2C2DAA3C96DBA43CFF
:104390002F449F3CF76E993C2B64933C332C8D3C0F
:1043A00094CF863CDD56803C2C95733C6666663C1B
:1043B000FE31593C22084C3C74F83E3CF311323C2F
:1043C000DE62253C9DF8183CAADF0C3C8223013CB0
:1043D0001E9DEB3B3BD4D53B9FFCC03B2D24AD3B0E
:1043E0005A569A3B279C883B48F86F3BEEF4503B6B
:1043F000CD31343BD9AD193B9C63013BCE92D63ACB
:1044000031A3AE3ABFD58A3A3402563A9FEB1D3AF1
:104410003CFCD9399A8D85396D58F6385E170A36C5
:104420009B0BC4B8BF7F33B9A66C74B9A27993B99A
:10443000FE99A6B989A1B4B9A691BEB96E60C5B9F5
:1044400059F6C9B9242CCDB9EFC8CFB99E80D2B9DD
:104450007DF2D5B92CA8DAB9D114E1B9FFFFFFFF7D
:10446000FFFFFFFF303132333435363738394142C0
:1044700043444546403058003031323334353637C6
:104480003839616263646566403078000400000872
:104490000000000000000002000100001000000009
:1044A00002400000000000A00000000005400000E5
:1044B000000000C8000000000C4000000000409C0C
:1044C00000000000194000000020BCBE00000000F9
:1044D00034400000BFC91B8E00000004B54000003E
:1044E000504BCFD06607E2CF010000006C410000C6
:1044F0003E8251AADFEEA73401000000D94200003D
:10450000DCB5A0E23A301F97FFFFFFFFB445000083
:10451000FD25A0C8E9A3C14FFFFFFFFFFF3F00003B
:104520000000008000000000FF3F0000000000804D
:10453000000000007045000800000020600000003E
:104540006C010008D045000860000020480B000006
:10455000880100081C00000043000000F8FFFFFF76
:104560000C0000000E0000000F0000002E000000F4
:10457000000000000000000000000000A00F00008C
:104580000000000000000000010000000100000029
:10459000000000000000000000000000000000001B
:1045A00000000000000000000000010203040102FE
:1045B00003040607080902040608000000A24A04D2
:1045C00000000000000000000102030406070809C3
:0400000508000131BD
:00000001FF
